:020000040804EE
:10000000002B002449210408111E0408352104088E
:1000100035210408352104083521040800000000BA
:100020000000000000000000000000004D22040855
:10003000352104080000000019220408813C04084E
:10004000E5230408E5230408E5230408E523040860
:10005000E5230408E5230408E5230408E523040850
:10006000E5230408E5230408E5230408E523040840
:10007000E5230408E5230408E5230408E523040830
:1002980080F0004002E000BF81F0004142001FBF33
:1002A8005FEA410392EA030F7FEA226C7FEA236C3C
:1002B8006AD04FEA1262D2EB1363C1BFD218414031
:1002C80048404140B8BF5B42192B88BF704710F0C7
:1002D800004F40F4000020F07F4018BF404211F06A
:1002E800004F41F4000121F07F4118BF494292EAD2
:1002F800030F3FD0A2F1010241FA03FC10EB0C00FE
:10030800C3F1200301FA03F100F0004302D549428A
:1003180060EB4000B0F5000F13D3B0F1807F06D337
:1003280040084FEA310102F10102FE2A51D2B1F12F
:10033800004F40EBC25008BF20F0010040EA030024
:100348007047490040EB0000013A28BFB0F5000FA4
:10035800EDD2B0FA80FCACF1080CB2EB0C0200FA5A
:100368000CF0AABF00EBC25052421843BCBFD040A9
:100378001843704792F0000F81F4000106BF80F423
:1003880000000132013BB5E74FEA41037FEA226CE6
:1003980018BF7FEA236C21D092EA030F04D092F0B1
:1003A800000F08BF0846704790EA010F1CBF0020E5
:1003B800704712F07F4F04D1400028BF40F0004042
:1003C800704712F100723CBF00F50000704700F062
:1003D800004343F0FE4040F4000070477FEA226289
:1003E80016BF08467FEA23630146420206BF5FEA5A
:1003F800412390EA010F40F4800070474FF000035A
:1004080004E000BF10F0004348BF40425FEA000C20
:1004180008BF704743F0964301464FF000001CE0C8
:1004280050EA010208BF70474FF000030AE000BF1E
:1004380050EA010208BF704711F0004302D540425C
:1004480061EB41015FEA010C02BF844601460020CE
:1004580043F0B64308BFA3F18053A3F50003BCFAE9
:100468008CF2083AA3EBC25310DB01FA02FC634496
:1004780000FA02FCC2F12002BCF1004F20FA02F29D
:1004880043EB020008BF20F00100704702F1200290
:1004980001FA02FCC2F1200250EA4C0021FA02F2F1
:1004A80043EB020008BF20EADC7070474FF0FF0CF6
:1004B8001CEAD0521EBF1CEAD15392EA0C0F93EAF1
:1004C8000C0F6FD01A4480EA010C400218BF5FEA93
:1004D80041211ED04FF0006343EA501043EA511106
:1004E800A0FB01310CF00040B1F5000F3EBF490000
:1004F80041EAD3715B0040EA010062F17F02FD2A04
:100508001DD8B3F1004F40EBC25008BF20F00100E6
:10051800704790F0000F0CF0004C08BF49024CEAFD
:10052800502040EA51207F3AC2BFD2F1FF0340EA8F
:10053800C250704740F400004FF00003013A5DDC00
:1005480012F1190FDCBF00F000407047C2F1000241
:10055800410021FA02F1C2F1200200FA02FC5FEA2E
:10056800310040F1000053EA4C0308BF20EADC7078
:10057800704792F0000F00F0004C02BF400010F4EA
:10058800000F013AF9D040EA0C0093F0000F01F097
:10059800004C02BF490011F4000F013BF9D041EAB9
:1005A8000C018FE70CEAD15392EA0C0F18BF93EABB
:1005B8000C0F0AD030F0004C18BF31F0004CD8D1E5
:1005C80080EA010000F00040704790F0000F17BF6C
:1005D80090F0004F084691F0000F91F0004F14D0B2
:1005E80092EA0C0F01D142020FD193EA0C0F03D10A
:1005F8004B0218BF084608D180EA010000F000400D
:1006080040F0FE4040F40000704740F0FE4040F4E7
:10061800400070474FF0FF0C1CEAD0521EBF1CEA86
:10062800D15392EA0C0F93EA0C0F69D0A2EB0302A4
:1006380080EA010C49024FEA402037D04FF080533E
:1006480043EA111143EA10130CF000408B4238BF03
:100658005B0042F17D024FF4000C8B4224BF5B1A11
:1006680040EA0C00B3EB510F24BFA3EB510340EA5F
:100678005C00B3EB910F24BFA3EB910340EA9C000D
:10068800B3EBD10F24BFA3EBD10340EADC001B017D
:1006980018BF5FEA1C1CE0D1FD2A3FF650AF8B4221
:1006A80040EBC25008BF20F0010070470CF0004C2E
:1006B8004CEA50207F32C2BFD2F1FF0340EAC25059
:1006C800704740F400004FF00003013A37E792F01A
:1006D800000F00F0004C02BF400010F4000F013A78
:1006E800F9D040EA0C0093F0000F01F0004C02BF73
:1006F800490011F4000F013BF9D041EA0C0195E7DC
:100708000CEAD15392EA0C0F08D142027FF47DAF74
:1007180093EA0C0F7FF470AF084676E793EA0C0F64
:1007280004D14B023FF44CAF08466EE730F0004C62
:1007380018BF31F0004CCAD130F000427FF45CAFF2
:1007480031F000437FF43CAF5FE700BF42000ED2B8
:10075800B2F1FE4F0BD34FF09E03B3EB126209D4F4
:100768004FEA002343F0004323FA02F070474FF0AA
:100778000000704712F1610F01D1420202D14FF01F
:10078800FF3070474FF00000704700BF53B94AB9B7
:10079800002908BF00281CBF4FF0FF314FF0FF3081
:1007A80000F00CB8ADF1080C6DE904CE00F008F8C3
:1007B800DDF804E0DDE9022304B07047704700BFAC
:1007C8002DE9F04786468C460846089E154674462D
:1007D8001946002B40F0C2808542B2FA82F245D910
:1007E8004AB1C2F1200300FA02FC2EFA03F3954045
:1007F80043EA0C0C94404FEA154EA8B2BCFBFEF835
:10080800230C0EFB18CC08FB00F943EA0C4399456E
:1008180028D9EB1808F1FF3704D2994502D9A8F175
:1008280002072B44A3EB0903A4B2B3FBFEFC0EFBA7
:100838001C330CFB00F044EA0344A04214D92C19E1
:100848000CF1FF3304D2A04202D9ACF102032C44CC
:10085800241A43EA07401EB1D44000233460736071
:10086800BDE8F0874746DDE76346F1E792BB431BE7
:1008780001214FEA154EAFB2B3FBFEFC200C0EFB74
:100888001C330CFB07F840EA0343984562D9EB1880
:100898000CF1FF3004D2984502D9ACF102002B4488
:1008A800A3EB0803A4B2B3FBFEFC0EFB1C330CFB4A
:1008B80007F744EA0344A7424ED92C190CF1FF3339
:1008C80004D2A74202D9ACF102032C44E41B43EA48
:1008D8000040C0E7C2F1200320FA03F195409040A0
:1008E8002EFA03F303434FEA154EAFB2B1FBFEFCF9
:1008F8000EFB1C10190C0CFB07F841EA0041884557
:1009080004FA02F422D969180CF1FF3004D28845A0
:1009180002D9ACF102002944A1EB08019BB2B1FB5A
:10092800FEFC0EFB1C110CFB07F743EA01439F4238
:100938000ED9EB180CF1FF3104D29F4202D9ACF169
:1009480002012B44DB1B41EA004192E76046E3E7E2
:100958006146F7E76046A3E76346B7E7834206D9EF
:1009680016B9002108467BE7C6E900E0F9E7B3FAC3
:1009780083F78FB9834201D3724508D8BEEB0204CE
:1009880060EB030301209C461EB9002168E7384646
:10099800FAE7C6E9004CF8E7C7F1200CBB4022FA99
:1009A8000CF41C432EFA0CF120FA0CF3B840014366
:1009B8004FEA14490EFA07F5B3FBF9F81FFA84FE5B
:1009C80009FB18300B0C08FB0EFA43EA00439A4562
:1009D80002FA07F240D9E31808F1FF3004D29A4529
:1009E80002D9A8F102002344A3EB0A0389B2B3FB9E
:1009F800F9F809FB183308FB0EFE41EA03418E455E
:100A08002CD9611808F1FF3304D28E4502D9A8F118
:100A18000203214443EA0040A0FB0298A1EB0E0127
:100A28004145CE46434602D306D14D4504D2B9EBE3
:100A3800020E68EB04030138002EA6D0B5EB0E02B7
:100A480061EB030101FA0CFC22FA07F34CEA0303F9
:100A5800F940C6E9003198E74046C5E74346D9E77B
:100A6800034613F8012B002AFBD1181A01387047E6
:100A78000349044808B505F0FDF9002008BD00BF8A
:100A88002E8C0408578C0408014B1B68184700BFBC
:100A980070020024014B1860704700BF70020024E8
:100AA80030B585B004460D4610220021684607F08F
:100AB80021FB02232A4621468DF802306846034B63
:100AC800019305F0E9F905B030BD00BF910A0408AB
:100AD80080B505460E461746984604F0B1FFDFF884
:100AE8002090034607F00EFB0446424649F80030C2
:100AF80039463046A84754F8090001F037FB00BFD3
:100B080008000000104B114A1A60114BDA6822F0F5
:100B18003F0242F00402DA609A6942F440429A6164
:100B28009A699204FCD50B4B1A6841F20303B3EBA4
:100B3800124F06D1084AD2F8083143F00103C2F82F
:100B480008310020704700BFFC0200240090D00349
:100B5800004802580010005C00800051164B82B01B
:100B6800D3F8E02042F00072C3F8E020D3F8E02088
:100B780002F000720192019AD3F8F42042F00202C6
:100B8800C3F8F420D3F8F42002F002020092009A8D
:100B98000A4AD2F80423D20706D503F50053D3F83E
:100BA8009030002002B07047D3F8A02042F008022D
:100BB800C3F8A020F5E700BF00440258000400581D
:100BC800014B0360022070475C8804080C4BF0B4AA
:100BD8000C4E5F6A0C4BB34203D36FF08500F0BC38
:100BE80070475D68BD4209D31C693CB195F802C0E5
:100BF8000579AC4502D12346F0BC18472433EAE70F
:100C08003807002448040024240400242DE9F04770
:100C180005460E461746124CDFF84880DFF8489024
:100C2800444503D36FF08500BDE8F0876268D9F8C2
:100C380024309A4212D3A36983B1907829798842E3
:100C480005D13A4631462846BDE8F047184752795B
:100C5800012A03D13A463146284698472434DFE72B
:100C68002404002448040024380700242DE9F04116
:100C780005460E4617460A4CDFF82880444502D33D
:100C88006FF0850009E063690BB92434F6E73A464A
:100C98003146284698470028F7D1BDE8F08100BFC3
:100CA800240400244804002410B5044602F032F855
:100CB80010F1780F00D050B9054A204605F0F2FC33
:100CC800D2F8C43023EA00030020C2F8C43010BDB3
:100CD80038070024024B00221A605A60704700BF90
:100CE800F307002470B50B4B0B4CA34201D3002033
:100CF80070BD196A00221E7F0439D5B2AE4201D8F0
:100D08002433F2E7013211F832508542F5D101203F
:100D1800EEE700BF2404002448040024094808B56D
:100D28000378C3F341130A3350F823303BB100F181
:100D3800080200F110019847C043C00F08BD1846CB
:100D4800FCE700BF3807002404282DE9F14F0446CA
:100D58000F46DFF8949016D001282DD1DFF88C804B
:100D680098F8B93043B3224D00F0FEFD4D4520D22E
:100D7800D5F820B04FF0000A2B7F5FFA8AF6B3420D
:100D880004D82435F2E7FFF7A5FFE7E70BEBC60623
:100D98000AF1010A307901F0BDFF0246307905F009
:100DA80081FCD8F8C430002A23EA0003C8F8C4300C
:100DB800E2DA002388F8B9300D4D4D4508D30B4BC6
:100DC8001B6A6BB13946204601B0BDE8F04F1847A1
:100DD800EB681BB13A462146284698472435ECE78C
:100DE80001B0BDE8F08F00BF480400243807002494
:100DF8002404002473B5C4B20D4663068DF8074079
:100E080007D02046FFF76EFF78B10D4B93F8BA0074
:100E180058B10B4E204655B101F02CFFF3691BB1B8
:100E28000DF1070108209847012002B070BD01F0BC
:100E380037FFF369002BF7D00DF107010920F2E71E
:100E48003807002473B586781E4C8DF80060037946
:100E5800427943EA0223ADF80230C378304603F002
:100E680003038DF8043005F01DFCD4F8C4300546A2
:100E780018420BD0304600F059FD3046FFF714FFFA
:100E880006F0ADFF10B9962007F056F8684605F051
:100E9800E8FD10F1780F03D010B1002002B070BD4A
:100EA8009DF8000001F012FF10F1780F01D0002822
:100EB800F3D1D4F8C43001202B4384F8B900C4F826
:100EC800C430EBE7380700242DE9F047A34E044669
:100ED8000F461546B369FBB9237803F01F03012BAE
:100EE80000F09D80022B00F0048133BB94F90000D0
:100EF8002A680028617834DA062912D008292BD00C
:100F0800D9B901235170137096F8C3305B0043F0D0
:100F18000103137002232AE198470028DCD100203E
:100F28000DE06288100A011F8446012905D90728A7
:100F380003D8D2B2716A0C781CB96FF01500BDE8FD
:100F4800F0874E78664503D19A4200F00B81013351
:100F58002144F0E70B780AE196F8BA3013700123C0
:100F680005E101390829E8D801A353F821F000BFA9
:100F780011100408430F04081F100408430F040845
:100F88009D0F0408430F0408430F0408430F040887
:100F9800A90F0408A07801F02BFE0028BFD0CCE7E9
:100FA8006388756A63BBFFF795FE638886F8BA3075
:100FB800F369002BB3D06A4903209847AFE76B78F1
:100FC800042B10D0052B11D0022B04D16F79638824
:100FD800BB4208BF01202B781D442B78002BEED193
:100FE8000028AAD0DFE795F80380F4E76388BB42BE
:100FF800F1D1B8F1000FEED12846FFF723FFEAE759
:10100800FF270020B846E8E76388012B95D1002325
:1010180086F8C33083E76388012B8ED1F8E796F80A
:10102800BA30D5F800C0002B87D0756AA38894F829
:1010380004E02A46107800283FF47FAF517802294F
:1010480004D192F80480F04500F293800244F1E75D
:101058008CF800208CF80120396060E7154494E092
:101068000B2A7FF46AAF00274FF0FF08BA46C14643
:1010780006E06B78042B0FD0052B21D02B781D446C
:101088002B78002BF5D1F36913B151460720984707
:10109800002F7FF444AF50E795F80280A38895F8B5
:1010A80003909845EAD163889945E7D1B8F1070FCD
:1010B8001CD806EB0803AA46012783F8BB90DDE796
:1010C800A3884345DAD1A3784B450AD0AF78384690
:1010D80000F02CFC3846FFF7E7FDB0FA80F77F09EF
:1010E800CCE72846FFF7AEFE0746C7E7AA46002723
:1010F800C4E794F900206378002A18DA002B7FF4FB
:101108001CAF24792D6863060AD02046FFF7EAFD54
:1011180000283FF412AF96F8BA30002B3FF40DAF19
:101128002946204605F0B2FC00236B70F2E6012B3D
:1011380008D0032B7FF401AF6388002B7FF4FDAE4A
:10114800012103E0618800297FF4F7AEA088FFF74A
:1011580051FE00287FF4E3AEEFE600BF3807002415
:10116800F2070024022829607FF4F4AE4B883B6024
:10117800D5E694F9000062780028BFF671AF002A1E
:101188003FF466AF0A2A7FF4D8AE2A78002A3FF4E3
:10119800D4AE697804297FF461AFA9788B427FF4D3
:1011A8005DAF072B96BF9B19002393F8BB308CF8D3
:1011B8000030D4E613B5164C237DF3B9E26801ABD1
:1011C800A1688020019205F07CFA019AA368134473
:1011D800A360E3689B1AE3606BB962B12369E28894
:1011E8009A4208DD94F8C82093FBF2F102FB113310
:1011F8000BB90123237502B010BD002380201A46C5
:101208001946237502B0BDE8104001F097BD00BF34
:101218003807002430B5002385B002460D460193F7
:10122800002858D1002935D108220B460DEB0201C0
:1012380005F039FC002804DA802001F01BFD05B018
:1012480030BD2A4C029ABDF80E302260039A2575EB
:10125800626004F13802A2609DF90820002AC4E9FE
:1012680003550ADB802B04D9802001F003FD002000
:10127800E3E713B1C4E90333E1E7FFF74FFD0028C3
:10128800DAD0E28823699A42D4BFE260E360FFF7CC
:1012980091FFD4E7154C01ABD4E90215002D04DC0D
:1012A80005F001FC0028CADAC6E72A4605F0FBFB70
:1012B8000028D9DB019AA3681344A360E3689B1A4A
:1012C800E360002BBBD104F13803A360FFF726FDD0
:1012D8000028DCD1B0E78028B1D1044BDA68002AB5
:1012E800D5D11B7D002BD2D1A9E700BF3807002438
:1012F800054B064A586200209A62054ADA62054A96
:101308001A63054A9A61704738070024D10E040809
:10131800D50B0408750C0408150C04082DE9F341D5
:101328000446474D4FF0FF334FF0FF32454803F076
:101338000DFE95F8B830002B7BD16B6A83B142481B
:101348002C62E8616E6A01F04DFC01F075FB041E29
:1013580010DA3C4803F072FE204602B0BDE8F08186
:1013680000F0C0F8FFF7C4FF6B6A002BE7D14FF01D
:10137800FF34EEE700F01AFB041EEADB7378012B5A
:101388005AD1F379002B57D00026684685F8C83023
:10139800ADF802308DF804608DF8006005F061FB4F
:1013A800041ED6DB802768468DF8007005F059FBCF
:1013B800041ECEDB2549304605F039FB041EC8DB88
:1013C8002249384605F033FB041EC2DB204CDFF807
:1013D800848044451AD3002001F078FC041EB8DB51
:1013E800D5F8C430802043F00103C5F8C43001F0BB
:1013F8006DFC041EADDBD5F8C430002443F4803303
:10140800C5F8C430012385F8B830A2E7276A00265A
:10141800227FF3B29A4201D82434DAE707EBC302F9
:1014280057F833100136107905F001FB0028EFD08A
:101438009DE76FF077048CE76FF0150489E700BF2C
:10144800380700244C030024510D04081D12040819
:10145800240400244804002430B5204B8BB003F149
:10146800100505AA1868083353F8041C1446AB4243
:1014780003C42246F6D11B781022002101A823704C
:1014880006F038FE12220021154806F033FE10211E
:1014980001A802F0CFF800281DDD082801AB10498B
:1014A800B8BF082009381A18002012F8013F0AAC02
:1014B8000130023104EB131403F00F03082803F181
:1014C800280314F8144C6B4401F8024C13F8143C2C
:1014D80001F8013CE9D102480BB030BD998C0408F1
:1014E800D5180024734B2DE9F04F93F800B087B05E
:1014F800BBF1000F03D0704807B0BDE8F08F6E4C09
:1015080000264FF0011AB0463546B14623783BB95C
:1015180002346A4B9C42F3D10123664A1370EAE70E
:101528006378052B1BD8DFE803F08C03C28C1D39C8
:10153800402304A88DF810B0ADF812308DF814B01F
:1015480005F080FA40B1082304A8ADF8123005F080
:1015580079FA08B1ADF812B0BDF81230E37123780A
:101568001C44D3E7E378002BF9D1A3786BB108F1D9
:1015780001085FFA88F8F2E76B689C4207D02435C7
:101588004F4B9D42F8D30020B6E74E4DF8E7AB68C5
:10159800002BECD0414620469847E8E7002DF2D0D2
:1015A80000222B7F9A42EED2296AA07801EBC20171
:1015B8000B79984201D00132F3E70127E078FBB2BA
:1015C80000F003008DF81400207994F805C040EA73
:1015D8000C20ADF8120094F90200002826DA07F171
:1015E80010004FF0010C0CFA00F010EA0A0F24D199
:1015F80043F080008DF8100004A80192CDE9021391
:1016080005F020FA039BDDE90121B0B99DF810200F
:1016180012F0800FA2700A714FF0010217BF103349
:10162800BA40DBB29A404AEA020A98E70120B84079
:1016380010EA0A0F01D11846DCE70137102FBDD197
:10164800B9E7032E1BD1FFF707FF074658B1FFF78D
:1016580007FA024638B11028394604F10200A8BF3B
:10166800102206F039FD23786FF00201E218091BF9
:1016780004EB5303D14213D50136F6B26FE7002EBF
:10168800F1D1B9F1000F3FF47EAFA4EB090389F85B
:10169800048089F80230C3F3072389F80330EBE7A5
:1016A80002F801BC13F8010902F8020DE2E7A146AD
:1016B80055E700BFD4180024600300242104002447
:1016C8004804002424040024084B00211A4610B5BD
:1016D8001C78844204D15C6814B102EB811010BDFF
:1016E800013140330429F3D10020F8E7040800242D
:1016F8002DE9F34150F8283C044610F82C6C1033BF
:101708000AD1036950F8202C980736D5D2B9590761
:1017180015D5002344F8283C54F8283C10330BD046
:1017280054F8148C54E9077506F059FB00284FD07B
:1017380021462E4806F037FB02B0BDE8F08143F0A1
:101748000403236101AB54F8241C304604F0B9FFAC
:1017580010B16FF01503DDE7019A54F8243C1344E7
:1017680044F8243C54F8203C9B1A44F8203C54F894
:101778001C3C134444F81C3CCEE701AB54F8241C31
:10178800304601F02DFB0028E3D1019D54F8243C9C
:101798002B4444F8243C54F8203C5B1B44F8203C80
:1017A80054F81C3C2B4444F81C3C002DB1D0304666
:1017B80005F087F9B5FBF0F303FB1055002DA8D110
:1017C80054F8203C002BA4D0304601F037FBA3E7A7
:1017D80044F8180CA4F1100003F06CFC002DABD0F9
:1017E800424639463046A847A6E700BF48040024C9
:1017F8004B1E012B73B506460D460FD8FFF764FF45
:10180800044668B9012D09D101AB01220DF103018C
:10181800304601F0E5FA019B002BF5D102B070BD0E
:1018280006F0DDFA04F12C0108B1012D05D10846B6
:1018380002B0BDE87040FFF75BBF034802B0BDE8E7
:10184800704006F0B0BA00BF480400242DE9F74FF5
:10185800064615469846019104F07CFF0446002888
:101868005BD1EFF3118A102383F31288BFF36F8FD4
:10187800DFF8ACB000220023584603F03FFC70B9F3
:10188800DFF8A090A70109EB8414636813F1100F27
:1018980014D10193584603F00DFC019B06E0013476
:1018A8000BF1400B042CE5D16FF00B038AF3118880
:1018B800BFF36F8F184603B0BDE8F08F019B20611E
:1018C800304609F80760C4F83C80C4E902350C9B2F
:1018D80063610D9BA3616FF00F03636005F0F1F87E
:1018E80058B1304605F0EDF8B5FBF0F303FB1055A1
:1018F8001DB1E36B43F00403E36318F0020F07D054
:1019080007F12C010848494406F04DFA0023CDE7B9
:10191800304601F093FA0346C8E76FF00F03C9E7B2
:1019280020080024040800244804002410B5EFF31C
:101938001184102383F31288BFF36F8FFFF7C4FE5F
:1019480050B14368103307D16FF08B0300F12C01BD
:101958004360044806F027FA84F31188BFF36F8FB9
:1019680010BD00BF48040024F8B50E4C042510270C
:10197800EFF3118687F31288BFF36F8F6368103314
:1019880007D16FF08B0304F12C010748636006F060
:101998000AFA86F31188BFF36F8F013D04F1400402
:1019A800E6D1F8BD040800244804002470B5094CA9
:1019B8000025094E3146204606F0D9F901220135A5
:1019C800A4F110004034114606F095F9042DF1D128
:1019D800002070BD30080024F916040870B50446CC
:1019E8000E4601791546154804F091FE10B394F996
:1019F80000206378002A16DB202B04D0222B0ED07F
:101A08006FF085000AE02B681A6840F8102C9A8855
:101A180020F80C2C9B7900F80A3C002070BD6388E4
:101A280000F8093CF9E7212BEAD110380723286090
:101A38003360F2E76FF01200F0E700BF04090024FA
:101A48000146044808B504F06FFE10B1012300F800
:101A5800073C08BD040900240169012381F84B30C3
:101A68000B6833B191F849301BB10831014806F0D1
:101A78009AB97047480400240169012381F84A3063
:101A88000B6833B191F848301BB10831014806F0B2
:101A98008AB9704748040024012370B582F8483099
:101AA8000D46136814463BB192F84A3023B102F14F
:101AB80008010D4806F077F9D4F850321A699B6886
:101AC8009A4205D17DB904F118014FF47A7204E005
:101AD80004F11801002DF8D0002200230248BDE8C7
:101AE800704003F069BC70BD4804002470B50569F6
:101AF80095F85E02E0B195F85F32D3B985F84830C1
:101B0800EFF31186102383F31288BFF36F8FD5F894
:101B1800500204F043FD044686F31188BFF36F8F2B
:101B28000022002305F11801034803F045FC204674
:101B380070BD0020FCE700BF4804002400210D4AC6
:101B48000346A0F84810106883F85C12C3F85402E2
:101B580090889279A3F8580203F14C0083F85A222E
:101B68004FF4007283F85B12A3F85E1283F86012D8
:101B780006F0C0BA28880408F0B5D0F84C3285B011
:101B880004465B681B6A1F7D384604F0E3FD064681
:101B980008BB94F84632F3B14FF4806203A9D4F835
:101BA800380204F01AFD0546A8B1C0F3080384F80A
:101BB800306003B9451EA4F1180303992A46384634
:101BC8000193064B00930223FFF740FE2946D4F801
:101BD800380204F021FD05B0F0BD00BFA11A0408C9
:101BE80010B500230469C4F8683204F51A720B4B67
:101BF800C4F86402596869B9C3E9002204F108000D
:101C0800074906F0B4F804F11800064906F0DBF8B5
:101C1800002010BD0A605A60F0E700BF04090024E4
:101C280087670408811B040830B54FF40033426805
:101C380085B0056942F2A1000B4CADF80C1001A962
:101C4800CDE90103002385F85D32106A0A22007984
:101C580004F037FD95F85D3223B9012005F0EEFF59
:101C6800013CF7D105B030BDA186010073B5002352
:101C7800046910258DF8071084F84830EFF31186B1
:101C880085F31288BFF36F8F01220DF10701D4F895
:101C9800500204F083FC86F31188BFF36F8F01288C
:101CA8000AD006F09CF810B994F861326BB9094B68
:101CB8001A780AB901221A700A22002304F11801BD
:101CC800054803F079FB02B070BD00210A2003F03B
:101CD8009BFED3E7E71800244804002437B51446D0
:101CE8000A1E054621DD04F14C01D4F84C0204F02B
:101CF80055FC012384F8493023683BB194F84B30F4
:101D080023B104F10801114806F04DF8D4F84C123B
:101D18004B684A699A1ACB699B1AB3F5007F04D2BB
:101D2800012384F8603203B030BD94F85E32002B92
:101D3800F9D0074B4FF4007204F14C012846009388
:101D480001230194FFF782FDEDE700BF480400245A
:101D5800E51C040873B50D4601461C4804F0CCFC8C
:101D680010B30368691EA0F519745E6805291BD8AD
:101D7800DFE801F01C1A031C222694F85E1299B9B8
:101D88000123224684F85E32336A187BFFF7A6FFE8
:101D980094F8482042B9336A1146187D0C4B0194D7
:101DA80000930223FFF752FD02B070BD204602B037
:101DB800BDE87040FFF7C2BE012384F85F32F3E745
:101DC80094F85F32002BEFD00023F6E704090024D3
:101DD800A11A040837B5094D00244FF0FF334FF41A
:101DE800806207492846009403F0A8FA0549284666
:101DF80005F0FBFF204603B030BD00BF48040024B7
:101E080000190024B88C040808B5034B1B689847D0
:101E1800BDE8084000F026B8CC02002430BFFFF728
:101E2800FDBF00BF2DE9F0410B4E0546DFF82C80C1
:101E3800324606EB0807CC1B0949204606F04CF948
:101E4800A019083C4246002106F054F907F10800A1
:101E58002C67BDE8F08100BF00000000040000000E
:101E680018880408074A936893F90E10002907DBBD
:101E78005269934204D0044A536843F08053536034
:101E8800704700BF9C18002400ED00E0264B70B599
:101E980015469A6A064612F0100F9A6A14BF112462
:101EA800102412F0080F9A6A18BF122492070AD554
:101EB800586B9A6A140634D519B19A6A22F08002CE
:101EC8009A62132401E06FF01500174B9A6A12F01A
:101ED800010F9A6A18BF142412F0200F9A6A18BFCB
:101EE8001524D20602D49B6A9B070AD50E4B5B6861
:101EF800190506D5314600F027FA10B180F3098894
:101F08000224094B9A6A920603D55A6A22F40052AF
:101F18005A629A6A204642F0FF029A6200232B70A6
:101F280070BD6FF01500CCE700ED00E0134B9A6A26
:101F380012F0007F9A6A14BF1E201D2012F0807FC5
:101F48009A6A18BF1F2012F4002F9A6A18BF21201E
:101F580012F4802F9A6A18BF222012F4003F9A6A5E
:101F680018BF232012F4803F9A6A6FEA024218BF12
:101F780024206FEA12429A62704700BF00ED00E029
:101F8800194B024610B5986A9C6A10F4805F14BF1A
:101F98001720162014F4006F9C6A18BF1820A40597
:101FA80009D5986B986A000404D51AB19A6A22F484
:101FB80000429A6219200C4B9A6A12F4806F9A6A4E
:101FC80018BF1A20D2050CD49B6A13F4005F18BFFF
:101FD8001C20054A936A43F47F43936200230B70E5
:101FE80010BD1B20F5E700BF00ED00E0484BF0B541
:101FF8005B688BB004460025C3F3080385F311889A
:10200800BFF36F8F02F07F40B0F17F4F11D102F024
:102018000C0008280DD010074CBF0C4601250022E3
:10202800033B8DF80720032B05D8DFE803F0256470
:1020380068612C46F3E700239DF80720D2B902AE69
:1020480004F120072068083454F8041C3246BC42C6
:1020580003C21646F6D1099A002D54D0C2F30801DE
:1020680021B96FEA52226FEA4222099202A9184660
:1020780004F09AFC0BB0F0BD254BDA6A9107DAD46C
:10208800DA6A002AD7DBDA6A5200D4D55A69A1691C
:1020980042F480725A61BFF34F8FBFF36F8F5A6952
:1020A80031F8021C22F480725A61BFF34F8FBFF3DC
:1020B8006F8F4DF6027291420AD09A6AD2B24AB133
:1020C8000DF1070201212046FFF7E0FE0346B3E7C2
:1020D8002368B1E79A6A12F47F4F05D00DF1070122
:1020E8000120FFF74DFFF1E79B6AB3F5803FA2D3CC
:1020F800FFF71CFFEAE70DF107020021E3E70DF106
:1021080007010020EDE722F4FF7222F00102ACE79C
:1021180000ED00E0044B5A6942F010025A615A6916
:1021280022F008025A61704700ED00E0EFF30880E2
:10213800EFF3098101B57246FFF758FF01BD00BFF3
:10214800102080F3118808484FF40461401880F388
:102158000988EFF314800221084380F31488BFF341
:102168006F8F00F0B7F80000401D0024084B9B68F3
:1021780083420BD1EFF3058343B1064B5A6842F013
:1021880080525A605A6A22F400425A6205F0E4BE4C
:102198009C18002400ED00E0094A6FF00A019368DA
:1021A8009967084958674B6843F080534B60002390
:1021B80083F31188BFF36F8F9368986F704700BFE0
:1021C8009C18002400ED00E010B50446EFF31183DD
:1021D800102383F31288BFF36F8F0A4B4FF000620E
:1021E80058699860084B5A60084B026F1A600022C1
:1021F800436F426783F31188BFF36F8F00F00CF9C8
:10220800204610BD9C18002400ED00E00C090024B5
:102218000B498A684FF030001044EFF3098C80E8CE
:10222800F01F74467046FFF7CFFFA64604498A6838
:1022380002F1300090E8F01F8CF309887047000025
:102248009C1800241EF0040F0CBFEFF30880EFF376
:102258000980816911F8021C0229FFD001B504F038
:10226800A9FB01BD00B2002807DB0123410900F0EA
:102278001F00024A834042F82130704700E100E025
:1022880000B200280CDB4309012200F01F000549B9
:102298002033824041F82320BFF34F8FBFF36F8F65
:1022A800704700BF00E100E000B2013100284FEAAA
:1022B8000111C9B206DB00F1604000F5614080F809
:1022C8000013704700F00F00014B1954704700BF0E
:1022D80014ED00E00F4A08B522F07F020E4B9A6019
:1022E800BFF34F8FBFF36F8FD3F8882022F47002AB
:1022F800C3F88820EFF3148323F0040383F31488CE
:10230800BFF36F8F02F076FD03F038FC00F05AF847
:1023180002F0B4FD0000040800ED00E042F8203CA3
:10232800203A009B07495360019B21F0010193600B
:10233800029B9161D3604FF08073D36100230265E3
:1023480043677047D90A0408094A0346906870B180
:1023580013F1160F006E05D0A0F140029A4205D87D
:10236800834203D2814228BF002070470020704773
:102378009C18002415460C4A0E4608B50B4B906075
:10238800026F1A6000F048F82C4686F309884FF06F
:102398000000074B984720464FF000014FF000021D
:1023A8004FF00003034C20479C1800240C0900241C
:1023B800CD690408D90A0408014B10221A61704734
:1023C80000ED00E0002304481021C2180133962BC9
:1023D80082F80013F9D1704700E100E008B5EFF387
:1023E8000583064A103B02EBC30152F833004968E3
:1023F8008847BDE80840FFF735BD00BF688304087B
:10240800024B0121024A034800F076B80000082474
:1024180000000024D0880408026E4021044B403A92
:1024280018461A60034AC3E90112012100F06EB888
:102438001009002400000B15084AC2F898000B6820
:1024480023F01F03034343F01003C2F89C308B684A
:1024580043F00103C2F8A030704700BF00ED00E070
:102468002DE9F0430E4685B01F4604464FF000099B
:10247800DFF85480B14523DA6068D8B13FB1411E16
:1024880008421BD11F2819D92368194216D123687D
:10249800019304F0ABFAA3680343D0B20393D8F8CE
:1024A8009050C5F30725013DA84207D801A9FFF7B9
:1024B800C3FF421C09F101090C34DBE76FF0150278
:1024C800104605B0BDE8F08300ED00E0044B05229E
:1024D800C3F89420BFF34F8FBFF36F8F704700BFCF
:1024E80000ED00E0BFF35F8F024B0022C3F8942099
:1024F800704700BF00ED00E010B5034C01232278BF
:10250800FFF7AEFF207010BDE81800240B4A08B58D
:1025180000231278FFF7A4FF10F1160F07D0084A1E
:102528000021D2F89030C3F30723984200DB08BD9E
:10253800C2F898000130C2F8A010F2E7E8180024A9
:1025480000ED00E0544B2DE9F043544C85B0D3F82E
:1025580090302568C3F307239D4200F29A8000203B
:102568000C26FFF7BFFF85421AD14D4C68464D4FE8
:102578002570FEF725FB00250646DFF81C81DFF8ED
:102588002891AE4213D1237800204349D1F89020F6
:10259800C2F30722934276DB0020FFF797FF42E061
:1025A800616806FB0011FFF747FF0130DBE7009881
:1025B8004FEA051C00EB0511CB683B40B3F5000F53
:1025C80048D00AD8B3F5001F30D0B3F5800F36D005
:1025D800B3F5801F10D00135D3E7B3F1807F42D027
:1025E800B3F1007FF7D150F80C30886804F0FEF999
:1025F8004A6840F4802009E050F80C30886804F0FC
:10260800F5F940F088504A6840F43020039020786B
:10261800CDE90123D8F89030C3F30723013B984252
:102628002AD96FF0150005B0BDE8F08350F80C30DA
:10263800886804F0DBF94A6840EA0900E6E750F8E0
:102648000C30886804F0D2F940F0E0604A6840F441
:102658000030DBE750F80C30886804F0C7F94A68A6
:1026680040F08270D2E750F80C30886804F0BEF968
:102678004A6840F08870C9E701A9FFF7DDFE2378B2
:1026880001332370A7E7C1F898300133C1F8A000DF
:102698007CE74FF0FF30C6E700ED00E03088040823
:1026A800E81800240000F0FF0000081108B5024BEC
:1026B8001B689847002008BD1C090024034B044AE6
:1026C8001860937843F00203937070471C09002444
:1026D800D00200240649074821F00701C1F1105231
:1026E80008B502F5002203F0BDFE002008BD00BFBA
:1026F800873700242009002410B50A4C204605F02D
:10270800ADFA60B122692046A168136843F040031E
:102718001360054A0B680621BDE8104018476FF0A2
:10272800120010BD3C82040801000A002DE9F041A6
:10273800054600244FF001084FF0B0460E4F2A78A6
:102748001319DBB208FA03F0D6F8883030EA03032D
:102758000AD152FA84F3C6F8880057F833201AB120
:1027680007EBC3035968904701346A78E3B29A4289
:10277800E5D2BDE8F08100BF2C090024044B03EB2F
:1027880040000023013320F8022B9942FADC7047FD
:10279800080300244FF48013094A0A4910B5D2F8F7
:1027A800A40088420BD0581CF9D0013BF7D183F321
:1027B8001188BFF36F8F0424204602DFEFE710BDB6
:1027C800006402580003008007B50622012100209A
:1027D800FFF7D4FF002206201146FFF765FD01210F
:1027E80007220846FFF7CAFF002207201146FFF715
:1027F8005BFD082201210220FFF7C0FF002208200C
:102808001146FFF751FD092201210320FFF7B6FF0A
:10281800002209201146FFF747FD0A220121042062
:10282800FFF7ACFF00220A201146FFF73DFD052106
:1028380017220846FFF7A2FF002217201146FFF7CC
:1028480033FD282206210A20FFF798FF00222820BE
:102858001146FFF729FD074A6B4692E8030083E813
:1028680003000548194682681268904703B05DF86E
:1028780004FB00BF1888040800820408034680B1DE
:10288800B0FA80F2C2F11F02D2B2074931F9120040
:102898004FF0B042D2F880100B43C2F88030FFF7F7
:1028A800E1BCFF22F1E700BF0803002438B50D465C
:1028B8000446FFF76FFF032D0DD8DFE805F002117E
:1028C80016204FF0B0431A6822EA04021A605A68C8
:1028D80022EA04025A600E4B4FF440725A6238BD25
:1028E8004FF0B0431A682243F0E74FF0B0435A68FC
:1028F80022435A601A6822EA04021A60EBE74FF092
:10290800B0431A6822431A605A6814435C60E2E7CD
:102918000064025830B5B0B1B0FA80F3C3F11F03B8
:10292800DBB20B4850F833408C4204D100EBC305AE
:102938006D68954205D044B940F8331000EBC300E8
:102948004260002030BDFF23EBE76FF00F00F9E78E
:102958002C09002460B1B0FA80F3C3F11F03DBB285
:10296800044A002142F8331002EBC3025160704759
:10297800FF23F5E72C09002438B500F003030F25E1
:102988000C4604339B009D4045EA9005FFF702FF83
:1029980005F003032A0C92FAA2F29B00B2FA82F223
:1029A80003F1B04302F01F02D3F8081494404FF427
:1029B800407221EA15410C43C3F80844014B5A629E
:1029C80038BD00BF0064025800F003020F23043230
:1029D80092009340094A43EA900000F0030302334F
:1029E80052F82320030C93FAA3F3B3FA83F302EA11
:1029F800104003F01F03D840704700BF0004005880
:102A080020F08002032A0DDC074B10F0800F03F141
:102A1800900108BF18464FF0240318BF084603FB6F
:102A28000200704700207047940E0024014801F00E
:102A3800D9BA00BFAC09002473B55E4C204605F036
:102A48000DF9002800F0B08022692046A1681368BB
:102A580043F010031360584A0B6804219847054651
:102A680018B16FF0040002B070BD544C204605F058
:102A7800F5F8002800F09B80A668B369002BF0D019
:102A88002A464F49204698470028EAD1336820460D
:102A98004C4998470028E4D1F368002BE1D001AAFB
:102AA8004749204698470028DBD1474B019A9A426C
:102AB80028D1464B464DD3F8D820464C42F0806288
:102AC800C3F8D820D3F8D830A87303F08063E8801F
:102AD8000093009B404B2B6004232B714FF4A07391
:102AE8002B81E36843F08073E360E36823F00073AD
:102AF800E360E3685B0108D400214FF47A7002F0C8
:102B080083FFF6E76FF08500ADE701AA002133489F
:102B180004F0ACF80028A6DB019B0022197918689C
:102B280000F0A4FD00289EDB294804F0E5FB0028FE
:102B380097D1274804F06DFC002892D1244804F06E
:102B480048FC044600288CD1402385F8EC0485F81D
:102B58007C05A021A5F8E834A5F87835204D1C4857
:102B6800A5F28C5604F0CFFD10222146A5F28C5018
:102B780004F0AAFD0122013428462435114605F047
:102B8800BAF8042C06D04FF48D72E1B2304604F046
:102B98009BFDEFE700224D201146FFF785FB4D20F6
:102BA800FFF760FB00205EE76FF015005BE76FF052
:102BB800120058E75082040801000A000082040845
:102BC8005889040850890408006CDC020044025843
:102BD800AC0900240048025800000440E0880408BA
:102BE800380F0024014BC3F8E4047047AC090024F3
:102BF8000146054808B504F033FC002814BF6FF0FF
:102C08000400002008BD00BFAC09002408B5134625
:102C18000206014605D5802800D13BB16FF01500AA
:102C280012E0B3F5007F28BF4FF4007321F0800253
:102C38000648520202F5C162024404F089FC0028E9
:102C480014BF6FF00400002008BD00BFAC090024C9
:102C5800030610B50C4607D431B10146044804F008
:102C680095FC2060002010BD6FF01500FBE700BF49
:102C7800AC09002438B50546FFF7C2FE044638B152
:102C88002946064804F0A4FC28B90123637138BD1D
:102C98006FF01500FBE76FF00400F8E7AC090024BB
:102CA80038B50546FFF7ACFE044638B12946064854
:102CB80004F0C5FC28B96071E06038BD6FF01500FC
:102CC800FBE76FF00400F8E7AC09002470B5044690
:102CD800FFF796FE0546A0B10D4E214603790288FE
:102CE800304604F0D0FB78B963B2002B0BDD06EB5D
:102CF80044212A88204601F5C161BDE87040FFF7EC
:102D080085BF6FF0150070BD6FF00400FBE700BFD2
:102D1800AC09002410B50446FFF772FE48B12146FD
:102D2800054804F0E7FB002814BF6FF004000020FA
:102D380010BD6FF01500FBE7AC0900242DE9F8433E
:102D48000646894615469846FFF75AFE00283ED0A3
:102D580033063CD500F1140700220023384602F060
:102D6800CDF90446B0BB05F03AF810B94D20FFF78D
:102D780087FA802E02D1402D28BF40254A462B468F
:102D88003146164804F00AFC024658B1384602F0AB
:102D980091F905F024F810B94D20FFF763FA6FF0A8
:102DA800040411E0802E04D11DB101463046FFF71E
:102DB8002DFF05F014F810B94D20FFF753FAB8F1BC
:102DC800000F01D0C8F800502046BDE8F8836FF026
:102DD8001504F9E76FF00A04F6E700BFAC09002410
:102DE8002DE9F8430446884691461F46FFF708FE3A
:102DF8000546F0B12306C6681BD4B8F1000F13D0FE
:102E0800640203694E450C4904F5C164404628BF75
:102E18004E461C443246214405F05EF9EB689B1B84
:102E2800EB602B6933442B6107B13E600020BDE89D
:102E3800F8836FF01500FAE7AC09002410B50446D2
:102E4800FFF7DEFD68B123060BD4C3680BB1002081
:102E580010BD05490288204601EB4421FFF7D6FE44
:102E6800F5E76FF01500F3E7B40F002410B5134C25
:102E7800002340228021204604F005FB0023402245
:102E88002046194604F0FFFA04F28C5002F012F9B9
:102E980004F5B66002F00EF904F2D45002F00AF913
:102EA80004F5BF6002F006F9D4F8E43423B1002138
:102EB8000120BDE81040184710BD00BFAC09002430
:102EC800034BD3F8E43413B10021022018477047AC
:102ED800AC090024034BD3F8E43413B100210420D7
:102EE80018477047AC090024034BD3F8E43413B1F6
:102EF8000021052018477047AC090024034BD3F87C
:102F0800E43413B10021062018477047AC090024A7
:102F180070B50823104C002504F5C166D4F8A01438
:102F2800D4F89C04C4F8F434D4F8F034C4F8F85451
:102F380086E803007BB1294628469847B4F8A224BE
:102F48004AB194F99C34AB4205DB31462846BDE8CA
:102F58007040FFF75BBE70BDAC090024054B9B6A4F
:102F680013F0030304D0022B034818BF0020704756
:102F7800024870470044025840787D010090D00311
:102F880008B50C4B1B6903F03803102B10D0182B15
:102F980005D0002B084818BF0020400808BDFFF7DF
:102FA800DDFF0523B0FBF3F0A02358434008F4E706
:102FB8000248F2E7004402580090D00340787D01AF
:102FC80008B52B4B18680B680A2B21D813B96FF07A
:102FD80085001CE0013B092BF9D801A151F823F029
:102FE800433004083B300408493004081130040811
:102FF8004F300408D72F0408D72F0408533004088B
:1030080063300408533004081A481060002008BDD3
:10301800D42B0CD0D83B1C2BD9D8012101FA03F3AF
:1030280015490B4207D140F211110B42CFD040088D
:10303800EBE70020E9E78008E7E7FFF7A1FFE4E70F
:103048004FF4FA40E1E70D48DFE7FFF787FF052374
:10305800B0FBF3F0A0235843E9E7FFF77FFF052310
:10306800B0FBF3F0A02358430A23B0FBF3F0CCE7FE
:10307800FC02002440787D0100101111006CDC0274
:103088004FF48013094A0A4910B5D2F88C008842D7
:103098000BD0581CF9D0013BF7D183F31188BFF34B
:1030A8006F8F0424204602DFEFE710BD006402584A
:1030B8000003008010B50A680C460A2A2AD840F294
:1030C8007A73D340DB0725D5FFF7DAFF6268D3B2FE
:1030D800C2F34230C2F3042203F1B04300FA02F211
:1030E80003F51133196821EA02021A606168CBB24C
:1030F800C1F30242C1F3042103F1B0438A4003F54E
:1031080011331868024300201A604FF44072034BD1
:10311800DA6010BD6FF08500FBE700BF006402585D
:1031280010B50B680C46D43B202B11D8FFF7A8FF2D
:1031380023686168002003F1B04303F511331A686E
:1031480022EA01021A604FF44072034BDA6010BDA4
:103158006FF08500FBE700BF0064025813B50B68E9
:103168000C46D43B202B19D8FFF78AFF23686168E7
:10317800002003F1B04303F511331A680A431A60BB
:103188004FF44072236803F1B04303F511331B6811
:103198000193019B034BDA6002B010BD6FF085000C
:1031A800FAE700BF0064025837B5804CD4F8E03025
:1031B80043F00073C4F8E030D4F8E03003F0007353
:1031C8000193019BFFF75CFF236843F4802323608E
:1031D800236843F48033236023689D03FCD5236868
:1031E80043F001032360714B1A685007FCD51A6835
:1031F80022F018021A605A6F42F001025A675A6F99
:103208009107FCD51A6842F480521A60674B1A6815
:103218009204FCD51A6902F03802182A17D11A68E4
:10322800550707D41A6842F001021A605F4A13680A
:103238005C07FCD55D4B1A6922F007021A611A690E
:1032480012F0380FFBD19A6922F00F029A61574B9E
:103258001A6822F080721A609A6A22F0030242F019
:1032680002029A629A6A22F47C7242F050029A62CE
:10327800DA6A22F00C0242F00802DA62DA6A22F014
:103288000202DA621A6B22F4FF7222F0010242F0A3
:103298009F021A63DA6A22F00102DA621A6B22F4D8
:1032A8007E4242F400721A63DA6A42F48032DA62C9
:1032B8001A6B22F4FE0242F410221A63DA6A42F40C
:1032C8000032DA621A6B22F0FE4242F080721A6310
:1032D800DA6A42F48022DA621A6842F080721A606E
:1032E8001A689001FCD5324BDA6822F03F0242F0AE
:1032F8000402DA609A6942F440429A619A69910438
:10330800FCD52C4DFFF73CFE0446A84202D82A48BB
:1033180001F066FC254B9A6922F470629A619A69F9
:1033280022F00F0242F008029A61DA6922F0700274
:1033380042F04002DA61DA6922F4E06242F4806223
:10334800DA619A6922F0700242F040029A611A6AC0
:1033580022F0700242F040021A621A6922F0070253
:1033680042F003021A611A6902F03802182AFAD1E7
:10337800AC4202D9104801F033FC0D4BDA6822F058
:103388003F0242F00402DA609A6942F440429A61CC
:103398009A699204FCD5094B4FF440720020DA6018
:1033A800074B084A1A6003B030BD00BF00440258FA
:1033B80000480258FFC1EB0B00C2EB0B0064025837
:1033C800FC0200240084D71708B5074804F046FC1F
:1033D80038B10648FFF772F90448FDF75BFB002097
:1033E80008BD6FF01200FBE718830408F9330408DE
:1033F8000A2838B50446074D04D1AB680D21284684
:103408005B689847AB68E1B202485B68984720461A
:1034180038BD00BF188304082DE9F843D0F80480AC
:103428001746D0F810900C46D8F808001D4603F04F
:10343800F2FAB7F5001F064616D1D8F8085020460C
:10344800FFF7C2FA85420CD1214603F0E4FA04469C
:1034580003F0E4FA2046FFF77DFA00212046FFF743
:1034680025FA0020BDE8F883B7F5800F1FD04A463B
:103478001349FFF74FFAE8B9B5F1806F13D0B5F1EA
:10348800C06F12D0B5F1007F17D10225D8F8081007
:103498002046FFF771FA30462946FFF707FA30460B
:1034A800FFF7ECF9DDE70125F0E70325EEE76FF01C
:1034B8008500D7E76FF00F00D4E76FF01500D1E76C
:1034C800196C04084FF48013094A0A4910B5D2F858
:1034D800A00088420BD0581CF9D0013BF7D183F3E8
:1034E8001188BFF36F8F0424204602DFEFE710BD79
:1034F800006402580003008038B543680C465D68D4
:10350800FFF7E0FF4FF4407200206B6963406B6186
:10351800014B1A6238BD00BF0064025870B5436899
:103528000D4614465E68FFF7CDFF4FF44072002049
:1035380073695C402C405C40014B74611A6270BD39
:103548000064025838B5036904465860084D284697
:1035580004F084FB40B161682846AB680C311B68F5
:10356800984700EAE07038BD6FF01200FBE700BF33
:10357800008204082DE9F843164645680124884668
:1035880002F0300799468C40FFF79CFF6A68C6F343
:103598008013C6F3C111C6F3412622EA040203FAD6
:1035A80008F3202F43EA020304FA08F26B6002EBE7
:1035B8004200D5F808C002FB01F102FB06F66FEAEB
:1035C80000032CEA000C41EA0C01A960E96821EA31
:1035D800000146EA0106EE600FD1B8F1070F18D8CE
:1035E80002FA08F1286A01FA08F1C1EB011401FB9B
:1035F80009F120EA04000143296229683F090B40C8
:1036080057434FF440721F43094B2F601A62BDE8BD
:10361800F883240A696A64436443C4EB041004FB16
:1036280009F921EA000141EA09016962E5E700BFF9
:10363800006402581FB50C4B0C29D3F8082828BF82
:103648000C2112BA0C460192D3F8042812BA02923D
:103658000A46D3F8003801A91BBA039304F03CFDCD
:10366800204604B010BD00BF00E0F11F2DE9F0476F
:10367800044600EBC10600251C4FB44201D10020CE
:1036880014E02068C30600F01F0911D4656845F0EE
:103698002005C0F3481AC0F344200F2823D857F850
:1036A8002080B8F1000F0DD16FF01200BDE8F0874F
:1036B800B9F1100F04D0B9F1110FEAD16568E8E744
:1036C8003025E6E7404604F0C9FA0028ECD04B461E
:1036D8002A460AF00F01404603F0B0FA002804F128
:1036E8000804CADAE2E76FF01500DFE77C8A04080D
:1036F80043681B6803F1080252E8002F42F00102F8
:1037080003F1080040E800210029F3D1154A93424B
:103718001BD0A2F54C42934217D002F58062934227
:1037280013D002F5806293420FD002F58062934273
:103738000BD002F54442934207D0A2F51C429342B3
:1037480003D002F58062934203D15A6842F04002E6
:103758005A6053E8002F42F4807243E800210029A0
:10376800F7D170470010014043681B6803F1080255
:1037780052E8002F22F0010203F1080040E800217E
:103788000029F3D1154A93421BD0A2F54C4293422B
:1037980017D002F58062934213D002F580629342FB
:1037A8000FD002F5806293420BD002F54442934257
:1037B80007D0A2F51C42934203D002F580629342DF
:1037C80003D15A6822F040025A6053E8002F22F4CD
:1037D800807243E800210029F7D1704700100140AA
:1037E800F8B50C46036941685D682379012B15D04B
:1037F8009F1E7E427E41B6026279022A96BF444FDE
:103808004FF4005737F81270A279022A09D0042A17
:103818002FD0003B18BF01231B0306E04FF4C066FE
:10382800EAE7B3FA83F35B091B07E2790968012A1F
:1038380014BF4FF0000C4FF4407CA5421CD10A681D
:1038480022F0805222F4B05232431A430A604B6885
:1038580023F440533B434B6043681A68936823F44E
:10386800407343EA0C0393602968BDE8F84003F00D
:1038780040BC4FF48053D8E7D1F800E00EF4C06E96
:10388800764506D0D1F800E02EF4C06E4EEA060662
:103898000E6041680E68716801F440518F4204D08F
:1038A800716821F440513943716041680E6831688C
:1038B80001F010218B4204D0316821F010210B4314
:1038C8003360436819688B6803F440739C4505D0DE
:1038D8008B6823F4407343EA0C038B6043681B68CE
:1038E8009968490405D5032A09D09A6822F48042C8
:1038F80004E0032A03D19A6842F480429A6021685E
:103908002B68994203D003F0F4FB23682B60F8BDC1
:10391800288C04082DE9F34106464768046957488E
:10392800206004F09BF920B96FF0120002B0BDE8E6
:10393800F0812068F96883681B6898470028F5DBE0
:1039480001AA0021386A03F091F90028EEDB019BF7
:10395800002219791868FFF789FE0028E6DB7568E8
:1039680033692C68D3F80480236823F001032360AB
:10397800686804F073F90028D6D0D5E90101836896
:10398800DB6803B1984754E8003F43F00C0344E870
:103998000032002AF7D141463046FFF721FF2B7D40
:1039A8001BB1A36843F00803A3606B7D1BB1636878
:1039B80043F400436360AB7D1BB1636843F4803319
:1039C8006360EB7D1BB1636843F4003363602B7E57
:1039D800002B3BD02A4B9C421ED0A3F54C439C4263
:1039E8001AD003F580639C4216D003F580639C428D
:1039F80012D003F580639C420ED003F544439C42E9
:103A08000AD0A3F51C439C4206D003F580639C4270
:103A180002D01C4B9C422ED173681A68936843F4F9
:103A28008043936023686A7E23F0787343EA4253A5
:103A380023602368AA7E23F4F81343EA0243236031
:103A4800EB7E1BB1A36843F40043A3602B7F1BB13B
:103A5800236843F000532360236843F00103236085
:103A6800E3699A02FCD5E3695B02FCD530467B6AC0
:103A7800984700205AE76FF0150057E700820408BE
:103A880000100140000C0058F8B5436802460E4685
:103A980091F805E01C68036908795D6801288B794D
:103AA8001FD1BEF1020F76D9022B1F464FF4C06119
:103AB8004FF4005C00F08780042B7FD020B1C31E38
:103AC800012B7DD94FF48050BCF5805F00F08580D4
:103AD800BCF5405F00F08380BCF1000F1CD10123CE
:103AE8001BE002280AD1BEF1020F60D9022B1F4643
:103AF8004FF480610BD04FF4005CDDE7BEF1020F9C
:103B080058D9022B1F4657D1002862D00021C31E66
:103B1800012B55D9002002270323734550D103F008
:103B28005DFAB8424CD1F3791BB3012B59D12E4B16
:103B38009C421ED0A3F54C439C421AD003F58063E7
:103B48009C4216D003F580639C4212D003F5806333
:103B58009C420ED003F544439C420AD0A3F51C4373
:103B68009C4206D003F580639C4202D01F4B9C42C6
:103B780026D123683146104623F001032360FFF75E
:103B88002FFE236843F00103236096E8030085E8CD
:103B980003000020F8BD4FF4C061154F022B37F821
:103BA8001EC01F4688D170B94FF080508CE74FF483
:103BB8008061F2E70021F0E700219CE7002881D02E
:103BC8006FF08500E6E7C31E012BF9D90227002014
:103BD8007AE701464FF080509EE700239DE70223D5
:103BE8009BE7032BA3D0EBE700100140000C005823
:103BF800288C04084FF0E0230F4910B59C691A6916
:103C080008689B6902F480320C4934B993B90346B9
:103C18004AB90A681044C01A10BD002B08BF0346F1
:103C28000AB9A342F5D90A6802440A604FF0E022B3
:103C38001269EEE70446F3E7981800249418002464
:103C48000A4B1022002083F8232049F64042084BF3
:103C58001A6049F63F42074B18604FF0E0235A615B
:103C680098611A6942F007021A61704700ED00E096
:103C78009818002494180024684620F007018D46FF
:103C880019B5FFF7B7FF1149114B0868D3E900428E
:103C9800001942F10002C3E900020E4A00230B603A
:103CA80049F64043D2E90041001BB0FBF3F043431F
:103CB8001B1941F10001C2E9003102F039F8FEF7A1
:103CC800D1F8BDE819408546704700BF9418002414
:103CD800F0040024E80400242DE9F041DFF8E08036
:103CE80099B1421C0BD14FF0E022136923F0010374
:103CF80013614FF07F43C8F80030BDE8F081D8F871
:103D08000060012807DC00270BE0431CD8F800609E
:103D1800F7D14FF4D17040F2A3139842A8BF1846C8
:103D2800471EEFF31185102383F31288BFF36F8FBB
:103D3800FFF760FF234C4FF0E0239969D4E9002393
:103D480080184FF0000243F10003C4E900031E4B42
:103D58001A601E4B1A68831A2ED449F6404C0CFB85
:103D6800073303F51C433F33B3FBFCF7131A40F644
:103D7800C4120CFB0733934238BF1346144A9342CC
:103D880028BF1346C8F800304FF0E022013B906985
:103D98005361002381429361A1EB0003D4E900122F
:103DA80038BF9B195B1842F10002C4E9003285F361
:103DB8001188BFF36F8FA0E740F6C413E2E700BF96
:103DC80098180024F004002494180024E80400241F
:103DD8008020FF0038B5EFF31185102383F3128894
:103DE800BFF36F8F084B1C68084B1B68E41AFFF77A
:103DF80001FF85F31188BFF36F8F49F640432044D4
:103E0800B0FBF3F038BD00BFF0040024E804002440
:103E180038B5EFF31185102383F31288BFF36F8F42
:103E2800044B1C68FFF7E6FE85F31188BFF36F8F1C
:103E3800204438BDF0040024024A536823F00203EA
:103E4800536070470010005C2DE9F0414D4C236928
:103E580003F03803102B00F09080182B0DD0002BA6
:103E680040F08D802368484813F0200F03D0236862
:103E7800C3F3C103D840BDE8F081A76AA36AD4F8A8
:103E88002C8013F47C7FC3F30510666BF3D0FCF72A
:103E9800B5FAC6F3CC06054608F0010007F003079B
:103EA8007043FCF7ABFA4FF06451FCF7FFFA012FAF
:103EB800064652D0022F40D0002F4ED123689B06D1
:103EC80029D523683048C3F3C103276BD840FCF7D2
:103ED80095FA2946FCF79EFB0446C7F30800FCF751
:103EE8008DFA3146FCF7DAF94FF07E51FCF7D6F936
:103EF80001462046FCF7DAFA224B0446186BC0F359
:103F080046200130FCF77AFA01462046FCF782FB8E
:103F1800FCF71CFCAFE7206BC0F30800FCF76EFA57
:103F28003146FCF7BBF94FF07E51FCF7B7F929464B
:103F380004461648FCF76EFBDAE7206BC0F308006E
:103F4800FCF75CFA3146FCF7A9F94FF07E51FCF713
:103F5800A5F9294604460E48ECE7206BC0F3080093
:103F6800FCF74CFA3146FCF799F94FF07E51FCF713
:103F780095F9294604460748DCE707487BE70748E0
:103F880079E700BF004402580090D0030024744C25
:103F980020BCBE4B0024744A40787D0100093D00D6
:103FA80008B5FFF751FF0B4A0B4993699269C3F3B0
:103FB800032302F00F02CB5C03F01F0320FA03F384
:103FC800885C064A00F01F0023FA00F01060044ADB
:103FD800136008BD00440258CB8D0408F802002481
:103FE800FC0200242DE9F04F066889B004463046EB
:103FF80003F010FE0390002840F07081206803F061
:10400800DBFD002800F06A81D6F8083806F500655F
:104018002068C3F30D23C4F8D43403F0CDFD87071B
:1040280004D52268536903F002035361206803F042
:10403800C3FDC0062CD52268936923F01003936151
:10404800D6F82080C8F3434308F00F07022B40F04E
:10405800488147F6F07318EA030F14D02423C8F3F5
:104068000A19304603FB07474A46D7F8601203F09F
:1040780003FDD7F860324B44C7F86032D7F868328E
:104088004B44C7F868322268936943F01003936180
:10409800206803F091FD010300F13581206803F0E9
:1040A8008BFD42030DD5274606F5106B4FF0000A2D
:1040B800206803F08DFD0490049B2068002B40F0DD
:1040C800EC81206803F078FD002813DA6B6823F090
:1040D80001036B6094F8CC34012B40F086820021F8
:1040E800204684F8CC1403F025FB2268536903F0BA
:1040F80000435361206803F05FFD00050AD5AB68F3
:10410800D90702D52046FEF7EFFE2268536903F46B
:1041180000635361206803F04FFD020115D5226842
:10412800536903F00063536194F8CC34002B40F0DA
:10413800608201212368204684F8CC145B6DC3F3A8
:104148008303C4F8D03403F0F5FA206803F034FD93
:10415800C30433D56B68102123F001036B6020681A
:1041680003F094FB06F510634FF67F31227903982C
:10417800824200F24282EB6943F00113EB61E37B78
:10418800002B00F05982D5F8843043F00B03C5F8B2
:1041980084306B6C43F00B036B64D6F8003804F280
:1041A8009C4223F4FE63C6F80038A179206800F029
:1041B800F1FC2268536903F480535361206803F0CB
:1041C800FBFC870416D5206803F028FD206803F05F
:1041D800A8FB2768E071FFF7E3FEE279014638465D
:1041E80000F068FA2046FEF741FE2268536903F49E
:1041F80000535361206803F0DFFC000707D5204611
:1042080003F02BF92268536903F00803536120680F
:1042180003F0D2FC010600F11A82206803F0CCFCFE
:10422800C2020CD5A04606F5126901272379BB42C4
:1042380000F226822268536903F4801353612068D0
:1042480003F0BAFC83022CD5234606F5326001211F
:1042580022798A4220D993F87CC20268BCF1010F06
:1042680040F02482002A80F22182D4F8D47402F427
:10427800803207F00107BA4240F0188283F87BC207
:10428800B26942F08002B2617269170600F10E82CB
:104298006B6843F400736B602268536903F400137E
:1042A8005361206803F088FC410007D52046FEF7DB
:1042B80007FE2268536903F080435361206803F0C6
:1042C8007BFC42070AD523685D686B0702D5204648
:1042D800FEF700FE226853682B43536009B0BDE81F
:1042E800F08F062B7FF4CFAE082204F29C413046B3
:1042F800C8F30A1803F0C0FB242303FB0747D7F8C9
:1043080068324344BDE606F53068A24600272068B7
:1043180003F056FC0490049B2068002B3FF4BEAECB
:10432800049BDB0765D55FFA87FB594603F058FC09
:1043380010F0010F81461ED00123C8F8083020680C
:1043480094F806C000F53063016CBCF1010F03EB73
:1043580047139A687BD112F0080F07D0B4488142FE
:1043680009D9120407D54FF4004203E012F0200FD8
:1043780048D020229A6019F0080F0FD00823AC49C2
:10438800C8F808302368186C03F53063884203EBDB
:1043980047139A6870D82046FEF7BAFD19F0100F37
:1043A80002D01023C8F8083019F0020F14D073692E
:1043B8001A0603D56B6843F480636B609AF857322A
:1043C800012B06D10023594620468AF8573203F0BC
:1043D80045F80223C8F8083019F0200F02D020232E
:1043E800C8F8083019F4005F03D04FF40053C8F838
:1043F8000830049B013708F120080AF1240A5B08F9
:10440800049388E712F0280FB5D1DFF824C261457C
:1044180001D91204A7D41A69DAF87432C2F3120265
:104428009B1ACAF868326FB9D4F864222AB904F220
:104438009C42012100F0AEFB04E0D4F860221A444B
:10444800C4F860225946204602F044FB93E7DFF89F
:10445800E4C1614506D1110485D49006F2D5202225
:104468009A60EFE7002FEDD1D4F86432002BE9D140
:1044780004F29C423946DDE7110402D54FF40042AC
:104488009A602046FEF744FDA179012986D104F2FD
:104498009C42206800F07EFB80E7049BDB0740F12C
:1044A8009B805FFA8AF31946079303F0A2FB10F08A
:1044B800010F804620D001210AF00F026B6B01FA30
:1044C80002F223EA02036B63CBF80810A1790129F1
:1044D8000DD1D7E9072313443B62BAF1000F06D187
:1044E800636A23B904F29C42206800F053FB5FFA28
:1044F8008AF1204602F004FB18F0080F02D00823C6
:10450800CBF8083018F0100F02D01023CBF8083081
:1045180018F0400F02D04023CBF8083018F0020FF3
:1045280010D05146304603F0B1F9FB7D012B06D17E
:1045380000235FFA8AF12046FB7502F090FF022300
:10454800CBF80830236818F0800F059344D0D7E9DA
:1045580009329A4240D8A3EB0208FB69984528BF64
:104568009846059B08F1030803F510634FEA98087D
:1045780003EB4A130693069B996989B24145D7E92B
:10458800093227D393420BD8059B0AF00F0001216B
:10459800D3F83428814022EA0102C3F834281BE00A
:1045A800A3EB0209FB69079A9945059828BF994624
:1045B800A37900931FFA89F3396A09F1030803F014
:1045C80048FA3B6A4FEA98084B443B62BB6A4B4443
:1045D800BB62D0E79342D7D9049B0AF1010A24377A
:1045E8000BF1200B5B08049366E52046FEF786FC7A
:1045F8007BE52046FEF778FCA7E59960203353F861
:10460800202C22F4001243F8202CC3F8E811D3F828
:10461800E02122F40012C3F8E021D3F8E02142F0AF
:104628000062C3F8E021039A013203929EE500BFBD
:104638000A30544F0A31544F6B6943F4005343F026
:104648002B036B612B6943F00B032B61A5E5B36961
:10465800012704F257284FF0240923F08003B3619F
:104668002379BB427FF6D9AD09FB07F318F803306D
:10467800012B03D1F9B2204603F016F80137EFE712
:1046880098F83C30D9F80020012B09D1002A07DA24
:1046980067F07F01204688F83B30C9B203F004F880
:1046A800013708F1240809F12009BFE50131243355
:1046B8002030CDE5022A4AD1274B284A0B449342A1
:1046C80039D9274B274A0B44934236D9A1F57403AD
:1046D800254AA3F51053934231D9A1F18373234A94
:1046E800A3F5E74393422CD3214B224A0B44934230
:1046F80029D9214B214A0B44934226D3204B214AE6
:104708000B44934223D3A1F1B7731F4AA3F558531F
:1047180093421ED31D4B1E4A0B4493422CBF0623C3
:104728000723C26822F47052C260C26842EA832337
:10473800C360002070470F23F3E70E23F1E70D2332
:10474800EFE70C23EDE70B23EBE70A23E9E709235F
:10475800E7E70823E5E700BF405327FFFF340C00D5
:10476800401E1BFF3F420F007F4F120020D6130050
:1047780060B6E5FE5FE3160000D3CEFE40771B006F
:10478800C05BB3FEC091210020753800E05459FE8B
:10479800E09C410084B0F8B5044607A880E80E0004
:1047A80000239DF81C509DF82660194603F140022D
:1047B800013304EB82020F2B5160F7D104F5006737
:1047C800002E4ED17B6843F002037B60A36B23F479
:1047D8000013A363236843F040032360236843F076
:1047E800800323600023C4F8003E9DF82130012B8C
:1047F8003ED19DF81F10002938D1204603F08AF8D1
:104808001021204603F042F80146204603F061F8E3
:104818000843002304F51062C0B23B6100387B6195
:10482800FB6118BF0120002D4AD0D4F80019994225
:1048380020DA4FF00061C4F8001900214FF67F3CE0
:1048480001331161C2F808C020329D4215D9D2F84F
:1048580000E0BEF1000F0DDA4FF0904EC2F800E014
:10486800EEE7A36B43F40013A363BBE71946C4E761
:104878000321C2E700211160DFE7D4F8002B04F51B
:104888003063002A18DA4FF00062C4F8002B0022C7
:1048980000214FF67F3C01321961C3F808C020336C
:1048A80095420DD9D3F800E0BEF1000F05DA4FF0BC
:1048B800904EC3F800E0EEE7002200211960E7E718
:1048C8003B6923F480733B610023A3616FF080434D
:1048D80063619DF81E301BB9A36943F01003A361FF
:1048E800A2690B4B1343A3619DF822301BB1A36946
:1048F80043F00803A361012E05D1A36943F0804367
:1049080043F00403A361BDE8F84004B0704700BF5A
:1049180000383C8030B54A780B78012A00EB431305
:1049280000F5006029D1D3F80029002A0BDAD3F862
:10493800002942F00062C3F80029D3F8002942F0A8
:104948008042C3F800290A780124C56B02F00F02DF
:1049580004FA02F225EA0202C2630978C26901F088
:104968000F018C4022EA0402C261184AD3F80019E8
:104978000A40C3F80029002030BDD3F8002B002AD4
:104988000BDAD3F8002B42F00062C3F8002BD3F8FF
:10499800002B42F08042C3F8002B0A780124C56B33
:1049A80002F00F0204FA02F225EA0242C263097811
:1049B800C26901F00F018C4022EA0442C261044A34
:1049C800D3F8001B0A40C3F8002BD4E7007833EC77
:1049D8000078F3EFF7B54B780F78012B6A4E00EBB0
:1049E8004714DFF8A8C140F084800D6904F510630E
:1049F80045BB1D6935401D611D6945F400251D61D4
:104A08001D6905EA0C051D61012A47D1CA6902B171
:104A18005A610B79012B0CD1D0F8083813F4807F38
:104A2800D4F800390CBF43F0005343F08053C4F866
:104A38000039D4F8003943F00443C4F800390020A1
:104A480003B0F0BD1D6905EA0C051D611D693540FF
:104A58001D610D698E68BFB9B54288BF0E611D69B9
:104A680045F400251D610D691E69C5F3120535431E
:104A78001D610D79012DC7D11D6925F0C0451D6146
:104A88001D6945F00055BEE735441F69013DB5FB7A
:104A9800F6F53F4E06EAC5453D43E3E7D4F800394D
:104AA80043F00443C4F800390B79012B0DD00B698E
:104AB800002BC4D00A780123D0F8344802F00F0242
:104AC80093402343C0F83438B9E7D0F8083813F4D2
:104AD800807FD4F800390CBF43F0005343F0805373
:104AE800C4F8003900920B8A0A78C96802F0B1FF4D
:104AF800A5E7D4F8105B04F5306305EA0C051D61E1
:104B08001D6935401D610E698D683FBB06B10D6199
:104B18000D621E69C5F3120535431D611D6945F413
:104B28000025012A1D6102D1CA6802B15A610B79B8
:104B3800012B0CD1D0F8083813F4807FD4F8003B4F
:104B48000CBF43F0005343F08053C4F8003BD4F843
:104B5800003B43F00443C4F8003B70E7002ED8D074
:104B68002E44013EB6FBF5F6B6B275430D62084D0C
:104B78001F6905EAC6453D431D610D6A1E69C5F3F7
:104B880012053543CDE700BFFFFF07E00000F8FF3F
:104B98000000F81F30B5114C00F53063056CA542D4
:104BA80003D9D0F8004B002C16DB002401291C6126
:104BB8001C6944F400241C611C6944F018041C613D
:104BC8001C6944F0C0441C6106D15A61D0F8003B0E
:104BD80043F08023C0F8003B002030BD0A30544F1A
:104BE800002854D02B4A936903F44043B3F5404F4F
:104BF8001FD1294B294A0344934242D9284B294AB9
:104C0800034493423FD9284B984240D80020274A72
:104C1800136823F00F0303431360136803F00F03B3
:104C2800984232D0136803F00F03C01A18BF01204E
:104C38007047936903F44043B3F5004F0ED11C4A03
:104C48001C4B02449A421AD91B4A02449A4218D968
:104C58001A4A02449A4216D90133D5E7184A194B21
:104C680002449A4209D9184A02449A4207D9174A73
:104C780002449A4205D9164AEBE70420C7E7032005
:104C8800C5E70220C3E70120C1E70346CDE70120BD
:104C9800704700BF00480258FFC4A7F7FFE0F505BA
:104CA8007FE2D3FB7F1D2C04801D2C0400200052C2
:104CB800BF4C2AF6BF3B47037F8871F93FC4B8FC55
:104CC800FF6A45F53FA5AE023F10F4F77FB5A2FA9B
:104CD800BF5A51FD38B5EFF31185102383F31288BD
:104CE800BFF36F8F064B9C6802F0CBFF85F31188EA
:104CF800BFF36F8F2046BDE83840FDF737BA00BFD5
:104D08009C18002438B5094B53F82040013053F85B
:104D18002050A54200D838BD636823B1204602F070
:104D2800B3FF0834F5E723689847FAE7108C0408BE
:104D38002B4B0122032070B52A4C86B02A4D1A70DD
:104D4800FFF7E0FF01F076F802F0BAFF0420FFF762
:104D5800D9FF26463034AE4210D3224C00F096FDDF
:104D6800224EAC4226D300F0A5FDFBF781FE204A77
:104D7800137B23F00103137306B070BD54F80C3C89
:104D8800059354F8103C049354F8143C039354F8D6
:104D9800183C029354F81C3C019354F8203C0093AF
:104DA80054E90A2354E90C0100F030FB54F8303C74
:104DB8005E65CEE7D4E90A23B3F1FF3F08BFB2F13D
:104DC800FF3F05D052EA0301206803D103F010F831
:104DD8003034C6E73146183000F030FFF8E700BF3E
:104DE800E91800241888040818880408037F0408B0
:104DF8007805002403480021034A08B5121A02F076
:104E08005BFF08BD48040024EC18002470B500239B
:104E180086B00122144E01930446144D06EBC016C9
:104E28001349CDE904230F22CDE9023214234FF4AC
:104E3800A07203FB00554FF4C0700E4B00FB041129
:104E48003046009500F0E2FA737B0B4A23F0040326
:104E5800EE602C7473734FF4046304FB0333134440
:104E68006B6006B070BD00BFF80400249C180024D5
:104E780080250024CB7C0408401D0024BFB50020F9
:104E8800FFF740FF294B83F30888294D0024F023BE
:104E9800284E294F85F82230EC772C766C76AC7644
:104EA80085F820406B6A43F4E0236B62FDF732F922
:104EB800FDF782FA4FF0FF33AB62EB62FDF742FB7E
:104EC8001E4DFDF79DFA1E4B40F20112B3609A8108
:104ED800DC66C3E9184402F0C0FE0120FFF712FFA8
:104EE8000220FFF70FFF00F005FD164B75614FF428
:104EF800806205930123144928460094CDE90343B1
:104F0800CDE901443B4600F081FA6A7B0646284613
:104F180022F004026A7302F0A7FF2046FFF776FF2B
:104F28003A4631462846FDF725FA00BF8025002479
:104F380000ED00E09C180024394D04087805002491
:104F4800F8050024DB8D0408002700242DE9F3412F
:104F5800044617461E46EFF31188102383F3128880
:104F6800BFF36F8FC368334A7BB18068916888420A
:104F780019D057EA060318D188F31188BFF36F8F49
:104F88006FF00F0002B0BDE8F081916891F90E1042
:104F980001332161E3609368A36088F31188BFF34C
:104FA8006F8F0020EEE72169F2E791F90E106FF09C
:104FB8007E0290F90E309942A8BF19469142B8BFB7
:104FC80011468B422DDD02F087FE054622464146FA
:104FD8001948CDE9007600F0A5FB0028E1D0EFF3F1
:104FE8001186102383F31288BFF36F8FA068D0B1A6
:104FF800236821699C420AD04BB193F90E3099423B
:10500800A8BF19466FF07E039942B8BF194602F04F
:1050180063FE40B13146084800F0F4FB6FF00A0027
:10502800B0E70025D2E7002DF4D186F31188BFF34D
:105038006F8FF3E79C180024EA18002438B58368BA
:10504800044663B3194A926893422BD1C368012B73
:1050580003D9013BC360002038BDEFF3118510234D
:1050680083F31288BFF36F8F0169806802F034FE02
:10507800204602F046FFA06058B190F90E20226148
:105088000022826702F0F0FE2946094800F0BAFBC8
:10509800E1E7E06085F31188BFF36F8FDBE76FF01E
:1050A8001500D9E74FF0FF30D6E700BF9C18002461
:1050B800EA18002438B50446EFF31185102383F36A
:1050C8001288BFF36F8F02F01CFF48B1002282677D
:1050D80002F0CAFE29460848BDE8384000F092BBF5
:1050E800D4E902329A4218BF0133A36085F31188CC
:1050F800BFF36F8F38BD00BFEA18002413B5EFF374
:105108001181102484F31288BFF36F8F846844B12F
:10511800013C846081F31188BFF36F8F002002B0D7
:1051280010BD52EA030406D181F31188BFF36F8FD3
:105138006FF00F00F3E7CDE900230246014800F0C5
:10514800F1FAECE7EA1800242DE9F043054685B0AA
:10515800DFF830814FF0FF364FF0FF37EFF311895A
:10516800102383F31288BFF36F8FD5F880408CB972
:10517800022105F1980002F0CAFD002860D1002341
:1051880005F18802494640480293CDE9006700F0DE
:105198005DFCE3E7D5F8842023689442C5F88030A5
:1051A80008BFC5F88430D5F8983043F00203C5F835
:1051B8009830E36823F0040343F00103E360636875
:1051C80089F31188BFF36F8F20469847EFF3118951
:1051D800102383F31288BFF36F8FE368D90623F097
:1051E800010237D4E260E3689A071AD523F0020374
:1051F800D8F80000E360A0B10268002188B14368D4
:105208009C4237D1036869BBD8F80420C8F800303D
:10521800824201D1C8F80430002340F8083BFFF768
:1052280049FFD5F8983023F00203C5F8983089F380
:105238001188BFF36F8FDB0590D400F063FB8DE717
:1052480005F1900400220121204602F0A7FE002863
:10525800F8D194E723F01103E36004F11000FFF79D
:1052680029FFC0E70B60D8F80430834208BFC8F8AC
:105278000410D1E722B11368014610461A46BDE76B
:105288001346F9E7BC180024EA180024F8B5C368E7
:1052980004460F469A07C3F340062BD45B0719D47C
:1052A8000B680BB983680B60E368DD0745BFA3682B
:1052B800022601263B603D68002D3AD01E4B9B68B4
:1052C800AB420AD0D5F89830D807C3F3800214D47B
:1052D8006FF0120600233B6025E002F080FDD5F850
:1052E80098300028F0D1D907C3F3C002F0D552B1E5
:1052F8005B0708D46FF00F06ECE7002AFAD1C3F376
:10530800C003002BF6D100232360D5F8843063B99D
:10531800C5E92044284602F005FDE36843F004038C
:10532800E3603B68A3603046F8BD1C60C5F8844064
:10533800F0E76FF01506CDE79C180024F0B5044699
:10534800002089B0C4E9200004F188000E9DC4E95A
:10535800220004F19000C4E924004DB32879002804
:1053680040F2011008BF0120C4F8980000204FF057
:10537800FF364FF0FF370094CDE90330CDE9010047
:105388000C4B2046CDE9066700F08EF855B1296828
:1053980011B1204602F029FD6B791BB1237B43F044
:1053A80001032373204609B0BDE8F04002F020BD98
:1053B8000120D9E75151040837B501900846EFF3A9
:1053C8001184102181F31288BFF36F8FC16811F027
:1053D8001E0F17D153EA020508D101A9FFF756FF9E
:1053E80084F31188BFF36F8F03B030BD41F008011B
:1053F800103040F8041C01998161034900F01EFC3B
:105408000120EDE70020EBE73B7D040807322DE99A
:10541800F04322F0070285B00E461F46109900F1AE
:1054280058037F3204460173042122F03F0206F13B
:10543800400941733F2AA2F14008C0E916334FF0F2
:10544800000383600F98E373A073C4E9063305D89B
:1054580083F31188BFF36F8F084602DFB518204623
:105468002946FCF7DFFC07300E9B314620F0070089
:10547800C4E91898A0662D1A029320460D9B2A4667
:1054880001930C9B00933B46FCF748FF00236365A0
:10549800044B9B6803B1DB6E2846E36605B0BDE8A4
:1054A800F08300BF9C180024F0B5002587B004469F
:1054B8000595109D04950F9D03950E9D02950D9DD4
:1054C80001950C9DDDE912760095FFF79FFFB6F177
:1054D800FF3F08BFB7F1FF3F05D056EA070305D1E4
:1054E800204600F0A1F9204607B0F0BD3A46334601
:1054F800024904F1180000F0A1FBF4E7037F040857
:1055080038B50D4D2B4653F8184F9C4200D004B9BE
:10551800EC68AB6838B95A7BD20604D1A26912B9D3
:10552800DA897F2A05D89C4202D0204600F0CEFABC
:1055380023466B6138BD00BF9C18002408B590F95C
:105548000D200146437B002A04DA03F07F034373EE
:1055580002F050FC044B9868431A58425841BDE881
:105568000840FFF7CDBF00BF9C18002470B490F925
:105578000D30427B002B29DBD30627D183692BBB57
:1055880062F07F02124942730A4652F8184F944259
:1055980018BF2346CC6923B9C0E900242060C8613C
:1055A8000CE090F90E5093F90E60B5420AD0AE4265
:1055B80008DD5A68C0E9003210605860002070BCED
:1055C800FFF79EBF9C42E7D01B68E4E770BC7047BA
:1055D8009C180024002A2DE9F0410E46427B0CBF9E
:1055E80010210821044611420FD141EA0203D209D1
:1055F80018D1437308291BD00120FFF781FFBFF39F
:105608005F8F637B23F060036373274B9B68A34220
:1056180043D1EFF30583002B3FD13046BDE8F0417D
:10562800FCF7BABD03F07F03437302F0E3FBE1E745
:10563800A36813B1204602F0E5FB04F1180004F159
:10564800580702F0CDFCA56DAF4211D04FF000080D
:1056580075B1284602F0D6FB05F1180002F0C0FC2F
:105668002846C5F87880FFF781FFA56DAF42EFD1D6
:105678000D4DAB689C42BFD1EFF30583002BBBD027
:105688000120FFF73DFF094B40F20112AB609A8100
:105698000022C3E91822DA66B1E786F31188BFF35E
:1056A8006F8FBDE8F08100BF9C180024F805002426
:1056B80070B590F90D200146437B002A04DA03F007
:1056C8007F03437302F096FB4B7B154A63F07F031D
:1056D80010464B7350F8183FD469834208BF002323
:1056E80023B9C1E900042160D1610CE091F90E50A1
:1056F80093F90E60B5420ED0AE420CDD5868C1E990
:105708000030016059609068431A5842BDE8704003
:105718005841FFF7F5BE9C42E3D01B68E0E700BFA5
:105728009C180024F8B5124B0C461146114A98688B
:10573800DDE906761060EFF31182102282F31288F9
:10574800BFF36F8F9D68284602F066FBB6F1FF3FF6
:1057580008BFB7F1FF3F06D03A463346064905F180
:10576800180000F06BFA2046BDE8F840FCF714BDBD
:105778009C180024C4180024037F0408F8B50446C4
:10578800EFF31186102383F31288BFF36F8F437BE7
:1057980049B2DA0619D18569BDB903F07F034373AD
:1057A80002F028FB437B164A63F07F03817343733F
:1057B800134653F8180F984218BF0546D0695DB9CB
:1057C800C4E900300460D46111E00020A17386F3BD
:1057D8001188BFF36F8FF8BD95F90E70B9420BD0E1
:1057E8008F4209DD6B68C4E900531C606C600120BE
:1057F800FFF786FE0120EAE7A842E1D02D68DEE740
:105808009C18002449B9EFF3058030B9054B5A6953
:105818009B689A4201D0FCF7BFBC81F31188BFF3A3
:105828006F8F70479C18002410B5EFF31184102275
:1058380082F31288BFF36F8F427B510704D484F33D
:105848001188BFF36F8F10BD22F004024273FFF777
:105858008DFE21460248BDE81040FFF7D3BF00BFC8
:10586800EA180024034648B9EFF3058232B9064A1C
:1058780051699268914201D0FCF78EBC83F311887C
:10588800BFF36F8F704700BF9C180024EFF311819E
:10589800102383F31288BFF36F8F054B9A68D37B6D
:1058A800013BD37381F31188BFF36F8F704700BF3B
:1058B8009C18002438B5EFF31185102484F312885E
:1058C800BFF36F8F0A4B00209A68D37B0133D373E1
:1058D800FFF716FE85F31188BFF36F8FEFF3118082
:1058E80084F31288BFF36F8FBDE83840FFF7BABF63
:1058F8009C180024024B03F11802C3E906227047E2
:105908009C180024F8B5EFF31185102383F312884F
:10591800BFF36F8F19498868437B03F07F03437394
:1059280002F068FA8B6808465A7B62F07F025A7365
:1059380050F8182FCC69824208BF002222B9C3E967
:1059480000042360CB610CE093F90E6092F90E70AD
:10595800BE420ED0B7420CDD5168C3E900210B608E
:1059680053600120FFF7CCFD2846BDE8F840FCF75E
:1059780013BCA242E3D01268E0E700BF9C180024E1
:1059880050EA01032DE9F04105460E4603D1FFF721
:10599800B9FF00202BE0831C71F1FF3329DB02F0F3
:1059A80034FB2C18EFF31188102383F31288BFF30C
:1059B8006F8F124F124BB8681860FFF7BFFDB868B9
:1059C8002A4610493346183000F038F9BA6840467C
:1059D800537B43F010035373FCF7DEFB02F015FB17
:1059E800201A63EB0303012873F10003D1DBBDE840
:1059F800F0816FF00104241AD4E700BF9C1800243A
:105A0800C4180024037F0408B1F1FF3F08BFB0F1B8
:105A1800FF3F08B506D1094B986802F034FA4FF0F9
:105A2800FF3008BDFFF7ACFF0A22C11709304FF05D
:105A3800000341F10001FAF7A9FEF2E79C180024DF
:105A4800014B9868704700BF9C180024D3B5DDE966
:105A58000667089CCDE90067FFF764FE1CB1034B9D
:105A68009B685B69236002B0D0BD00BF9C1800240E
:105A7800044B0122C01A044BC0105843034B1A545C
:105A8800704700BF78060024ABAAAAAAEA18002427
:105A9800C3897F2B12D80A4B1B6863B1094B90F955
:105AA8000E201B689A4209DB437BDB0606D1064BB6
:105AB800C31A18BF012303F0010070470023FAE757
:105AC800CC180024C8180024F80400240E4B70B524
:105AD8001E7C05460D4C06EB460304EBC30420462A
:105AE80002F07EFA0A4B002228469A55FFF7D0FFAB
:105AF80048B1084B204608491A68013ABDE8704089
:105B0800D31700F09BB870BD9C18002478060024B9
:105B1800EA180024CC180024795A040838B5EFF3A1
:105B28001185102383F31288BFF36F8F104B114A2E
:105B38009C681068A04206D1FFF7C8FF85F311885A
:105B4800BFF36F8F38BD00211B7C11600A4AD35CFC
:105B5800002BF3D02046FFF79BFF0028EED0637B95
:105B6800DB0602D12046FFF7A3FD2046E4E700BF8D
:105B78009C180024C4180024EA1800240648074A80
:105B88000749121A08B502F099F8064A0649074863
:105B9800BDE8084002F092B8000000244804002440
:105BA800348E040800000000348E0408000000242D
:105BB800034B1B680BB9FEF70DB90020704700BFF7
:105BC800D018002430B570B10B4B5B6898420AD0EE
:105BD800036843B1D3E90421D0E90445121941EB24
:105BE8000501C3E90421D0E9003213605A6000239B
:105BF800C0E9003330BD00BF000300240E4B10B5D0
:105C08001C689C4204D1FFF7D3FF6FF0004010BD21
:105C1800FFF7CEFF002CF8D0D4E904321B1A62EB50
:105C2800E072B3F1004F72F10001EEDA002AACBF66
:105C380018460020EBE700BF00030024B3F1FF3F44
:105C480008BFB2F1FF3FF8B504461D4616465ED0C0
:105C58008160EFF31187102383F31288BFF36F8FEE
:105C6800013275F1FF3324DA2E496FF00103D1E9CF
:105C780000209B1A4FF0FF3262EB00009E1B60EB86
:105C88000500012E70F1000301DA01260020C4E9A5
:105C98000460254ED6F800C07568B44508BF4FF0BB
:105CA800000CBCF1000F0DD1C4E900652C607460D4
:105CB8001CE0FFF77DFF013645F10005361845EB7E
:105CC800E070E4E7DCE90420D4E90431934271EBA5
:105CD800000E1DDAD21ADCF8043060EB0100CCE9C2
:105CE8000420C4E900C31C60CCF804403368B34204
